:1000000019C020C01FC01EC01DC01CC01BC01AC00C
:1000100019C018C017C016C015C014C013C012C034
:1000200011C010C00FC00EC00DC00CC00BC00AC064
:1000300009C008C011241FBECFEFCDBFDFE3DEBF74
:100040004ED0C3C0DDCFAB01BC01E0E4F4E088E0FA
:10005000818386838683AFEDBBEA1197F1F700C0F9
:10006000000085838DED98E50197F1F700C0000051
:1000700080E298E0292F2683AFEEBAE01197F1F7DE
:1000800000C00000772344F49583A5E6B1E2119700
:10009000F1F700C0000007C09583AFEEBAE01197FA
:1000A000F1F700C00000440F551F661F771F8150F5
:1000B00011F7E0E4F4E088E08683AFEEBAE0119750
:1000C000F1F700C000008583BFE72AE136E0B150B8
:1000D00020403040E1F700C000008283089588EDA1
:1000E00084BF1092600084BF1092610084BFE0E082
:1000F000F1E0118284BF89E08083E0E4F4E081E0F4
:10010000828388E0808B92E09283818BE0E2F4E04E
:1001100080E28183858380E18183858360E050E094
:1001200020E030E080E090E0C0E4D4E000E214E0C1
:100130006894FF24F5F807C080E090E004C020E058
:1001400030E080E090E0A895488541FD1CC0019614
:10015000883E23E0920780F0511111C0F801F68229
:100160006FEA70E58FEF90E06EDF60E051E020E035
:1001700030E080E090E007C020E030E004C020E004
:1001800030E080E090E0488541FFDDCF2F5F3F4FBA
:10019000283EF3E03F0780F26111D1CFF801F582EC
:1001A0006FEF70E0CB014FDF8FE39CE90197F1F730
:1001B00000C000006FEF70E0CB0145DF61E050E070
:0E01C00020E030E080E090E0BECFF894FFCF6A
:00000001FF
